:0200000460009A
:100000004643464200000156000000000103030081
:1000100000000000000000000000000000000000E0
:1000200000000000000000000000000000000000D0
:1000300000000000000000000000000000000000C0
:1000400000000000010408000000000000000000A3
:100050000000200000000000000000000000000080
:100060000000000000000000000000000000000090
:100070000000000000000000000000000000000080
:10008000EB04180A063204260000000000000000FD
:10009000050404240000000000000000000000002F
:1000A0000000000000000000000000000000000050
:1000B0000604000000000000000000000000000036
:1000C0000000000000000000000000000000000030
:1000D00020041808000000000000000000000000DC
:1000E0000000000000000000000000000000000010
:1000F0000000000000000000000000000000000000
:10010000D8041808000000000000000000000000F3
:100110000204180804200000000000000000000095
:1001200000000000000000000000000000000000CF
:10013000600400000000000000000000000000005B
:1001400000000000000000000000000000000000AF
:10015000000000000000000000000000000000009F
:10016000000000000000000000000000000000008F
:10017000000000000000000000000000000000007F
:10018000000000000000000000000000000000006F
:10019000000000000000000000000000000000005F
:1001A000000000000000000000000000000000004F
:1001B000000000000000000000000000000000003F
:1001C000000100000010000001000000000000001D
:1001D000000001000000000000000000000000001E
:1001E000000000000000000000000000000000000F
:1001F00000000000000000000000000000000000FF
:10020000FFFFFFFFFFFFFFFFFFFFFFFFFFFFFFFFFE
:10021000FFFFFFFFFFFFFFFFFFFFFFFFFFFFFFFFEE
:10100000D1002043491600600000000000000000ED
:10101000201000600010006000DC0560000000008F
:101020000000006000E8050000000000FFFFFFFF77
:10103000FFFFFFFFFFFFFFFFFFFFFFFFFFFFFFFFC0
:10104000FFFFFFFFFFFFFFFFFFFFFFFFFFFFFFFFB0
:10105000FFFFFFFFFFFFFFFFFFFFFFFFFFFFFFFFA0
:10106000FFFFFFFFFFFFFFFFFFFFFFFFFFFFFFFF90
:10140000814205D051F8043B40F8043B8242F9D8B0
:10141000704700BF044A05494FF0000342F8043BFF
:101420009142FBD8704700BFC0EE00208011012020
:101430002DE98848BFF34F8F00BF00BF00BF00BF3A
:1014400000F016F9674B0822C3F8542100BF00BF13
:1014500000BF00BF00BF00BF00BF00BF00BF00BF94
:1014600000BF00BF00BF00BF00BF00BF5E4A5F49B2
:101470005F48FFF7C5FF5F4A5F496048FFF7C0FF5D
:101480005F4CFFF7C7FF4FF470004FF0E0210023DF
:101490005C4AC1F8880D44F823200133B02BFAD1FF
:1014A000594B8021594A03F8011B9342FBD14FF05D
:1014B000E0254C4E4FF08039DFF880B1DFF880A195
:1014C0004FF0FF31C5F8084D0027C6F80491C6F863
:1014D00000B1C6F8F490C6F8F0A0D5F8243DDFF8C6
:1014E000648143F4E0234A4AC5F8243DD8F81C300F
:1014F00023F07F0343F04003C8F81C30D8F82430B1
:1015000023F07F0343F04003C8F824309166D1668E
:101510001167516700F0B4F83E4B3F49A3633F4B5E
:10152000E36363236B610323AF612B613C4BC5F81D
:10153000203DD5F8FC3D43F08073C5F8FC3D394BA8
:101540001A6842F001021A605B680B6000F020F933
:10155000C6F804913448C6F800B1C6F8F490C6F84D
:10156000F0A000F0B5FAD8F86C10304B304A41F4D6
:101570004051C8F86C101F60C3F80871C3F81871A7
:10158000C3F82871C3F83871936BDB0708D442F6AF
:101590001563284951651365936B43F00103936309
:1015A000234A254C936843F00113936000F054FAEA
:1015B00000F09AFA00F01AF900F05CF82368132B97
:1015C000FCD900F0ABF92368B3F5967FFBD300F0AC
:1015D00055F800F051F800F083FA00F071FA30BFCE
:1015E000FDE700BF00800D4090CE0400281C006085
:1015F00000000000C0EE0020BCEA046000000020F3
:1016000000EC0020651E000000E400E0A0E400E023
:1016100000C00A40A532000028110120A9320000B4
:1016200000002020001000E00046C32300400840D6
:1016300000400D400000C0562C1101201B10182046
:101640000C0D111300C00F40054B4FF42A01054A41
:1016500005485A641864054A99639546FFF7E8FE01
:1016600000C00A40FFFFAFAA0700200000000320CF
:10167000704700BF704700BF704700BF00BF704792
:1016800010B44FF0E023002110243148C3F8941D1A
:10169000C3F89C4D1124C3F8A00D2E48C3F89C4DEF
:1016A0001224C3F8A00D2C48C3F89C4D2B4AC3F854
:1016B000A00D2B4C42F015022A48C3F89C4DC3F8EC
:1016C000A00D294C2948C3F89C4DC3F8A00D284C07
:1016D000C3F89C2D2748284AC3F8A04DC3F89C0D99
:1016E000C3F8A02D02F5A022244C0C322448C3F8E4
:1016F0009C4DC3F8A02D234AC3F89C0D224CC3F87F
:10170000A02D02F14062C3F89C4D2048C3F8A02DE3
:101710000C32C3F89C0DC3F8A02D00BF00BF00BF62
:1017200000BF00BF0122C3F8942DBFF34F8FBFF35A
:101730006F8FC3F8501FBFF34F8FBFF36F8FD3F876
:10174000142D5DF8044B42F44032C3F8142D704759
:101750003F0000102500080709001000801101203B
:1017600013002000210002071400002025000813A8
:10177000090000101600202027000B13170000405E
:10178000180000602F000B07190000701A0000807D
:10179000F0B4154A40274FF480314FF480564FF48F
:1017A00000554FF4404443F24200136913F0020F16
:1017B0000ED113F4005F0FD013F4805F0ED0002B16
:1017C000F3DA13F4803F0BD15B060BD5F0BC704706
:1017D000946151619061E8E75561E6E75661E4E79D
:1017E0009161E2E75761E0E700800D403F4A032046
:1017F0003F49F3EE095AD2F880304FF0000C9FEDCC
:101800003D6A23F001039FED3C5A30B4C2F88030AA
:10181000C2F89000D1F8E010384DCBB2384C3948BE
:101820002B6007EE903A0B0DC1F30B21F8EEE77A2F
:1018300006EE903A07EE101A334BB8EEC77A2160E5
:10184000F8EEE66A314937EEC66A37EEC55A76EEEB
:10185000C76A77EEE57A26EE266AC3ED006A25EEC2
:10186000265AD2F8803067EEA64AC0ED007AC6EE5E
:10187000275A274885EE276AC4EEA76A75EE875A6D
:10188000FCEEE55A36EE076A15EE904ABCEEC66AE3
:1018900043EA045376EE877AC2F8803016EE103AA7
:1018A000D2F89041FCEEE77A01EA0341214317EEBA
:1018B000903AC2F89011C3F30B03D2F890110B4386
:1018C0001449C2F89031D2F8803043F00203C2F8D4
:1018D0008030114B80F840C0C1F840314FF0E02318
:1018E000012230BCC3F80821704700BF00810D40C1
:1018F00000441F400000AA420000B44238100120FA
:10190000341001203C100120401001200000FF0F86
:1019100000E400E000EC002065200000314B40F6C0
:10192000617210B5C3F8202140F2044400F0D4F8ED
:101930002D4A2E49D2F880302D4843F00303C2F8D7
:1019400080302C4BC1F8604102681A4203D1D1F8B3
:10195000A8319A071BD0254A4FF00041244B596308
:10196000D2F8403143F00203C2F84031D2F840319E
:101970009B07FBD44FF400304FF0E0211C4B4FF09D
:101980000042C1F88C0219209A6300F09DF8184AB1
:101990004FF08040154C002190630A20164B1160D7
:1019A0004FF42072C4F8A801184600F085F84FF4EF
:1019B000800203464FF4810040F243111860C4F8DE
:1019C00058311A640D4B0E4AC4F84811C3F804226A
:1019D0004FF0E0224FF400310123C2F80C11C4F89B
:1019E000403110BD00800D4000C00F4000002E406F
:1019F00000900D40001C1E000000002000EC0020A4
:101A00004D22000008B50E4B1B6E9B0700D4FBBE99
:101A100072B60C4B00200C4AC3F8400103F160433E
:101A20000A49A3F55F2311649D46BFF34F8F4FF41E
:101A300000130748074ADB6902609B68984700BFAC
:101A400000441F4000002E4000C00A400300200058
:101A500000802020000012EB104BA020104AD96E0D
:101A600041F4403110B4D96640F23764D96E41F484
:101A70004071D96654649064936C1B06FCD4094A87
:101A800040F23761A02351649364936C13F0800398
:101A9000FBD1054A13705DF8044B704700C00F403E
:101AA00000400C4000800C4052110120F8B500BFEE
:101AB000F8BC08BC9E4670475FF800F0F98F030041
:101AC0005FF800F0C51700005FF800F0591600003D
:101AD0005FF800F0691300005FF800F0BD29000016
:101AE0005FF800F079C403005FF800F0551D0000B6
:101AF000450000004904000071050000CD08000009
:101B0000D10B0000CDE900005D530100A9F40100F4
:101B1000C999020039A3020085CC020045CF02001A
:101B20001603550053004200200053006500720068
:101B3000690061006C000000180354006500650036
:101B40006E00730079006400750069006E006F001C
:101B50000403090409026200030100C032080B00FB
:101B60000202020100090400000102020100052432
:101B700000100105240101010424020605240600C9
:101B8000010705820310001009040100020A000089
:101B90000007050302400000070584024000000919
:101BA00004020002FF6AFF000705810240000107EE
:101BB000050102400001000009026200030100C0AB
:101BC00032080B00020202010009040000010202B7
:101BD000010005240010010524010101042402066E
:101BE0000524060001070582031000050904010011
:101BF000020A000000070503020002000705840234
:101C00000002000904020002FF6AC7000705810202
:101C10000002010705010200020100000A0600029D
:081C2000EF0201400100000089
:101C280000000000000000000000000000000000AC
:101C3800000000000000000000000000000000009C
:101C48000548064B1B1AD90F01EBA301491002D016
:101C5800034B03B118477047C0EE0020C0EE0020C8
:101C68000000000008B5054B1BB105490548AFF356
:101C78000080BDE80840FFF7E3BF00BF0000000098
:101C8800E00F012000E8056010B52DED028B9FEDF7
:101C9800288B0446B7EE006BB1EE003BB0EE485B14
:101CA800B0EE480B9FED244B9FED252B9FED261B97
:101CB80000F0EEF9B0EE485BB0EE484B04F160007E
:101CC800B0EE480BB7EE006BB7EE083B9FED202B4C
:101CD8009FED211B00F0DCF9B0EE480BB7EE006B6E
:101CE80004F1C000B7EE083B9FED1D5B9FED1E4B56
:101CF8009FED1F2B9FED201B00F0CAF9B0EE485B4B
:101D0800B0EE484B04F59070B0EE480BB7EE006BA0
:101D1800B6EE003B9FED1A2B9FED1B1B00F0B8F9A8
:101D280004F5F47000F0E8FC2046BDEC028B10BD11
:101D38000000000000000000000000000000444017
:101D48000000000000C082400000000000C082C007
:101D5800000000000080564000000000008056C0CF
:101D68009A9999999999B93F7B14AE47E17A843F3A
:101D7800000000000080764000000000008076C06F
:101D8800333333333333D33F333333333333D3BF43
:101D980030B5184D8DB00FCDEC466C46ACE80F0051
:101DA8000FCDACE80F0095E80F008CE80F0054F851
:101DB800040B0121C0B201F0DDFA0CAB9C42F6D154
:101DC8000A2001F051FE9FED0C0A122001F05CFD83
:101DD8009FED090A0E2001F057FD9FED070A062026
:101DE80001F052FD9FED040A0B200DB0BDE8304014
:101DF80001F04ABDC8060020000D0F4880ED600BB9
:101E0800704700BF10B5B0EE417B90B0B0EE431BF9
:101E180004468DED000BB0EE420B8DED027B8DED8F
:101E2800042B8DED063B00F069FC694608A88DED92
:101E3800080B8DED0A1B00F08BFC84ED600B10B0D5
:101E480010BD00BF80ED640B704700BF84B080ED0B
:101E5800620B80ED801B04B0704700BF10B52DEDFC
:101E6800048BB0EE428B82B0B0EE439B04468DEDFE
:101E7800004B00F087F9B0EE491BB0EE480B204646
:101E88009DED002B02B0BDEC048BBDE8104000F0C6
:101E98006DB900BF000000002DE9F0432DED028B65
:101EA80099B004468DED000B90ED620B8DED021B91
:101EB80000F064F994ED627B9FED516B94ED800B1B
:101EC800B0EEC77BB4EEC67BF1EE10FA00F292805A
:101ED80000F08AFB2046504D00F0F6F808AF0DF1EF
:101EE80048093E4684ED680B94ED600B00F0ECFB6E
:101EF800B0EE408B94ED600B00F0F2FB05F1200C86
:101F08000DF1300E9FED402B94ED646B94ED683B22
:101F180020EE025B04ACF0469FED3D4B95E80F00C8
:101F2800B0EE457BA8EE425BA8EE027B84E80F008A
:101F380005F11003394D0FCB27EE067B26EE056B16
:101F4800B0EE475BA3EE047BB0EE462BA3EE445BFA
:101F5800A3EE442BA3EE046B87E80F009CE80F0068
:101F68008DED122B8DED145B8DED166B8EE80F0049
:101F780054F8043BB5EEC07BDAB2F1EE10FA4FEA42
:101F8800021005EB0212134622DC2B58D268C3F864
:101F9800842033781A0105EB0313AA58DB68C2F8CA
:101FA8008830FDEEC77B58F8040B0436C0B217EE34
:101FB800901A0029B8BF4942B1F52F7FA8BF4FF446
:101FC8002F7101F0FBFBA7420FD0B9EC027BCFE7E2
:101FD8002A58DB68C2F8883033781A0105EB0313F6
:101FE800AA58DB68C2F88430DBE719B0BDEC028B75
:101FF800BDE8F08300F020FB6CE700BFAFF3008082
:102008000000000000E0604000000040B791E43F9D
:10201800CDCCCCCCCCCCF43FF8060020E4C80020D2
:1020280033EE033BBFEE007B08B5A3EE027B2DED3C
:10203800048BB0EE408B9FED0B0A31EE489BF7EE18
:10204800C70B32F099FEB7EE006BB7EEC07AB0EE70
:10205800480B37EE067B86EE075BA9EE050BBDEC59
:10206800048B08BD0000964410B5054C204603F0CB
:102078002DF92046034A0449BDE8104002F046BF46
:10208800B80A0120D0DA0020D13600000000000094
:102098009FED0B7B80ED000B80ED021B80ED107B2C
:1020A80080ED127B80ED0E7B80ED042B80ED063BEE
:1020B80080ED084B80ED0A5B80ED0C6B704700BF2C
:1020C800000000000000000090ED007B10B537EE26
:1020D800400B04462DED028B80ED100B01F020F92A
:1020E80007EE900A94ED166BB8EE677B94ED0C2B17
:1020F80037EE466B84ED167BB4EEC62BF1EE10FA84
:102108002EDC94ED101B94ED123B94ED0E4B94EDE8
:10211800087B31EE433BA2EE014B83EE028B94ED3C
:10212800065B24EE077B94ED0A6B94ED040BA5EE99
:10213800017B84ED0E4BA6EE087BB4EEC70BF1EEE7
:1021480010FA04D5BDEC028B84ED121B10BD94ED82
:10215800020BB4EEC70BF1EE10FA30FE070BF1E7F5
:10216800BDEC028B94ED140B10BD00BF80ED060B87
:1021780080ED081B80ED0A2B704700BF80ED000B37
:10218800704700BF80ED020B80ED041B704700BF55
:1021980010B5054C204603F099F82046034A044937
:1021A800BDE8104002F0B2BEBC0A0120D0DA00201F
:1021B800D1360000000000009FED176B08B5B4EEA3
:1021C800C61BB0EE407BF1EE10FA2DED028B20D449
:1021D8009FED136BB4EE461BF1EE10FA36FE018B41
:1021E800B3EE0C6B9FED120A9FED0F5B36EE477B4B
:1021F80027EE057BF7EEC70B32F0BEFDB7EE007B8E
:10220800B7EEC00A80FE470B28EE000BBDEC028B30
:1022180008BDB0EE468BE3E700000000008056C022
:10222800000000000080564000000040E17AA43F12
:1022380054F82D40000000002D4BB0EE417B70B5E6
:1022480094B02C4E93ED2C1B8DED000B93ED2A0BC7
:102258008DED027B00F052FAB0EE417B0CAC04AD80
:102268009DED021B8DED040B9DED000B8DED067BA6
:1022780000F044FA214628468DED0C0B8DED0E1B1F
:1022880000F066FAB3EE047BB0EE412B30469FEDCA
:10229800123B82EE072B9FED121B9FED130BFFF7EE
:1022A800BFFE3046FFF7CEFD95E80F0084E80F002B
:1022B8006B4614AC0FCB9DED0C0B9DED0E1B04E98A
:1022C8000F009DED102B9DED123B3046FFF79AFD58
:1022D80014B070BDAFF30080CDCCCCCCCCCCEC3FEF
:1022E8000000000000406F4000000000000079403E
:1022F80098F2002088F0002030B52DED028B9FED7C
:10230800688B774CB0EE002B99B07648B0EE484B0E
:10231800B0EE483B9FED641B9FED650BFFF79EFDFC
:10232800D4F8BC30012B22D0D4F8B830012B11D00E
:10233800256E012D38D01D4300F08380694894ED47
:102348002A0B94ED2C1B19B0BDEC028BBDE8304074
:10235800FFF7A2BD636E012B00F08580002BEDD145
:10236800B0EE480B9FED541BFFF766FFE6E7D4ED90
:10237800307A9FED5D0A5B4830EE670AB7EEC00A17
:10238800FFF73CFD57489FED4E0BFFF75BFD002321
:102398005448CDE90033CDE902339DED000B9DEDA6
:1023A800021BFFF753FDC9E7002BC7D194ED008B43
:1023B80094ED020BB0EE481BFFF7FEFE494838EEDD
:1023C800000BFFF71BFDB3EE046B94ED007B94ED5F
:1023D800028BB7EEC77B38EE468B27EE077AB5EE51
:1023E800407AF1EE10FA55D4B1EEC70ADFED3E5A45
:1023F8003C4880EE257AF3EE047AB0EE043B9FED7C
:10240800326B9FED332B9FED281B9FED2D0B27EE95
:10241800277AB7EEC77AA7EE068B88EE022BFFF76E
:10242800FFFD3048FFF70EFD00232E48CDE90C33A1
:10243800CDE90E339DED0C0B9DED0E1BFFF706FD50
:102448007CE7B0EE480BBBEE041BFFF7F5FE254812
:10245800CDE91455CDE916559DED140B9DED161BD0
:10246800FFF7F4FC6AE794ED040B1E48FFF7C6FC7F
:102478001C489FED190BFFF7E5FC00231948CDE92F
:102488000433CDE906339DED040B9DED061BFFF7E4
:10249800DDFC53E7B0EE470A32F01CFFA6E700BFA9
:1024A80000000000000000000000000000C07240B2
:1024B8000000000000C072C00000000000005E4084
:1024C8000000000000407F40182D4454FB210940C3
:1024D80000000000000049400000000000007940B2
:1024E80098F2002088F000200000344338B5164DDB
:1024F800164C284602F0EAFE154A1649284602F00C
:1025080005FD204600F0F8F804F1100000F0F4F89A
:1025180004F1200000F0F0F804F1300000F0ECF8CD
:1025280004F1400000F0E8F804F1500000F0E4F88D
:1025380000230948A366C4E91833C4E92E33BDE86B
:102548003840FFF7A1BB00BFC00A012098F2002065
:10255800D0DA0020D136000088F000202DE9F843B9
:10256800194D40F2EE28194C194FDFF874902E6877
:1025780002F01AFC2378CBB13B78DB0716D52B6821
:10258800D9F800209B1A0E2B10D900224FF4E13104
:10259800104800F02FFA104800224FF4E13100F003
:1025A80029FA0E48BDE8F843FFF7F2BB2B682278FA
:1025B8009B1B2AB1B3F5FA6FE7D802F0F5FBD7E712
:1025C8004345FAD9E1E700BF2C1101205A11012037
:1025D8005911012098D80020F8D8002088F0002050
:1025E8003C11012000000000B5EEC00B08B5F1EE6B
:1025F80010FA2DED028B03D59FED0B7B30EE070B08
:102608009FED098BB0EE481B32F08EFB9FED087BE7
:10261800B4EEC70BF1EE10FAC8BF30EE480BBDECB4
:10262800028B08BDAFF300800000000000807640F8
:10263800000000000080664008B52DED028B9FED7C
:10264800088BB0EE481B32F06FFBB5EEC00BF1EE15
:1026580010FA48BF30EE080BBDEC028B08BD00BF76
:10266800000000000080764008B52DED028B32F0A6
:1026780059FB9FED0F7B20EE070BB5EEC00BF1EE7B
:1026880010FA03D59FED0C7B30EE070B9FED0A8BFC
:10269800B0EE481B32F048FB9FED097BB4EEC70B48
:1026A800F1EE10FAC8BF30EE480BBDEC028B08BD46
:1026B800F8C1631ADCA54C40000000000080764099
:1026C80000000000008066409FED037B20EE070BB2
:1026D80032F076BFAFF30080399D52A246DF913FBA
:1026E8009FED037B20EE070B32F01EBFAFF3008097
:1026F800399D52A246DF913F704700BF00B52DEDCE
:10270800068BB0EE418B8DB0B0EE409BFFF7ACFF6F
:10271800B0EE40AB28EE088BA9EE098BB7EEC88B5C
:10272800B5EE408AF1EE10FA0AD4B1EEC81AB7EE47
:10273800C11AB0EE4A0B0DB0BDEC068B5DF804FB78
:10274800B0EE480A32F0C6FDB0EE401AEFE700BF1F
:1027580030B50C4605462DED088B90ED000B89B081
:1027680090ED02ABFFF7B0FFB0EE408B94ED000B9D
:1027780094ED02BBFFF7A8FFB0EE409B95ED000B70
:1027880029EE4B9B95ED02BBFFF7AAFFAAEE089B2B
:10279800B0EE40AB94ED028B94ED000BFFF7A0FF79
:1027A80020EE488BB0EE490BABEE0A8BB0EE481B1F
:1027B800FFF75AFF28EE088BB0EE40ABA9EE098B65
:1027C800B7EEC88BB5EE408AF1EE10FA09D4B1EE37
:1027D800C81AB7EEC11AB0EE4A0B09B0BDEC088BA7
:1027E80030BDB0EE480A32F075FDB0EE401AF0E7A1
:1027F80010B5054C204602F069FD2046034A0449FD
:10280800BDE8104002F082BBC40A0120D0DA0020E3
:10281800D136000001207047B0F84630B0F84820A3
:102828009BB292B2934202D2013AD01A7047416BDE
:1028380001390A44D01A7047016972B6B0F84A20C3
:10284800B0F84C3092B29BB29A423CBF806B1218DF
:10285800C86AD31A62B6C0F302601844704700BF52
:10286800B0F84A100246B0F84C3089B29BB299428F
:1028780010B4046914D00133906B116B984298BF5F
:102888000023994206D85B1A526AD05CC0B25DF840
:10289800044B7047126A5DF8044BD05CC0B27047B5
:1028A80072B6B0F84A0080B2814201D062B6E2E75F
:1028B800E36A13F0E06F03D14FF0FF3062B6E6E74A
:1028C800E36901200024116AA2F84A00C3F3090051
:1028D800DBB2A2F84C404B70F0E700BFB0F84A10EA
:1028E8000246B0F84C3089B29BB2994230B40469C0
:1028F80025D00133946B9C4216D9106B1FFA83FCC8
:10290800984217D9106AC05CC0B2956DA2F84CC045
:1029180045B199421CD3CB1AD16B994202D3D36DDE
:10292800C5F8883030BC70474FF0000C106B634618
:102938009842E7D8181A556A285CC0B2E5E70846F5
:1029480072B6B2F84A1089B2884204D062B6D0E7AB
:102958000C44E31AE0E7E36A13F0E06F03D14FF0A9
:10296800FF3062B6DEE7E069C0F30900F9E700BFAF
:1029780090F8443043B110B5044602F015FA94F8C3
:102988004430002BF9D110BD704700BF38B5D0E9ED
:102998000453D3E903120968114228D090F844205F
:1029A800044632B102F000FA94F84430002BF9D111
:1029B800636900210E4AA961207E03EB0010007DA7
:1029C80002EB0010456805202860657E03EB0513BF
:1029D80093F8343002EB0312A36D52681060A4F828
:1029E8004A10A4F84C1013B1E26DC3F8842038BD26
:1029F800E4C8002007EE901A9FED9A7A0421B6EEFB
:102A0800005AF8EE677A9FED986A41F6FF7CC7EEA8
:102A1800275A2DE9F0478E460569012407EE901ADA
:102A2800F8EEE77A85EEA77A77EE057AFDEEE77A93
:102A380017EE903A6345A8BF6346012BB8BF012340
:102A480007EE903AF8EEE76A76EEC76AC6EE877A3E
:102A5800F5EEC07AF1EE10FA48BFF1EE677AF4EEBF
:102A6800C67AF1EE10FA03D8B0EE676A8E461C46B5
:102A780001312129D2D10021436902F40076A0F85E
:102A88004A10B3F85AC08E42A0F84C10B3F85860F8
:102A9800A0F84610A0F8481080F84410816BDF6851
:102AA800A1EB0606A1EB0C01C0E90F6139681E69AC
:102AB80041EA0601396014BF01210021817640F006
:102AC800AC80017E694E03EB0118DFF8C09198F8DD
:102AD8001470D8F81CA006EB0717B968C1F8009065
:102AE8007968D8F818700F60BAF1000F03D0D8F8D9
:102AF8002010CAF80010477ED92103EB071898F870
:102B080034C006EB0C1CDCF808703960DCF80410E3
:102B1800D8F838700F60417E03EB0111CF6B0FB10D
:102B2800096C39600EF1FF31BEF1080F4FEA0161FF
:102B3800CCBF4FF0000E4FF0010E01F0F85144EAFF
:102B48004E4421435C682961597801F11003002142
:102B5800E960474941F8234041694FF0010E454C6F
:102B680002F0030C4F7891F85610434B39554FF04B
:102B780002174469617803EB511301F01F019B00B0
:102B88000EFA01F11960EF62AB6A43F08803AB6299
:102B980053073ED44CF4701302F00F01042908BF08
:102BA80043F0804397062ED5817E43F08053002959
:102BB8003AD11607AB6103D52B6943F000532B615B
:102BC8006B69D10623F0805348BF43F080536B6193
:102BD800D30503D52B6943F400532B61A36883B154
:102BE800264E3478002C3AD0611E254DC9B22B1FD1
:102BF80005EB810101E0994225D053F8042F90425A
:102C0800F9D1BDE8F087817E0029D2D043F0A00336
:102C1800CFE71C4B4CEA0303BEE7477E4FF2D901CE
:102C2800124E03EB07186AE7417E43F0A00304EB5A
:102C3800011191F8341006EB0116B668316821F4D9
:102C480040413160B5E7631CDBB20F4A337013783B
:102C580045F8240043F002031370BDE8F087012310
:102C6800074DF2E7001BB74BEC78AD60E4C80020D5
:102C780000EC002000E400E0403800384F1101204B
:102C88008004012010003C005D11012038F0010093
:102C9800EFF31380B8B9EFF310834BB9EFF3058264
:102CA8003AB94FF48073EFF3118050B1984208D2CB
:102CB80070470F2AF7D9054B9B5CEFF3118000286A
:102CC800F4D1184670474FF0FF30F1E7F0E300E029
:102CD800036D2DE9F04104460F46066913B1426DB4
:102CE800C3F88420A37E2BB172B6B36943F00053B6
:102CF800B36162B6B4F84650636BADB20135AB420E
:102D08004CD84FF000084546B4F848309BB29D4275
:102D180019D028E073691B0210D5B4F84830626BEB
:102D28009BB201339A4236D99AB2E16A99422DD9B7
:102D3800E169CB5CDBB2F361A4F84820B4F8483011
:102D48009BB2AB420FD1FFF7A3FF6369B3F85630CC
:102D58008342DFDAFF28F1DD02F026F8B4F84830C4
:102D68009BB2AB42EFD0E36AAB421AD9FFB2E36938
:102D78005F5572B6012084F84400A4F84680B36910
:102D880043F40003B36162B6BDE8F0815B1AA16A3F
:102D9800CB5CDBB2CFE700221346C6E71FFA85F803
:102DA800B2E7ED1AFFB2A36A5F55E2E7FFF790BFFB
:102DB8000269536913F4401F70B543D0D36A13F006
:102DC800E06FC3F3026E3AD0B0F84A50B0F84C60E6
:102DD800ADB2B6B207E0016A01F803C00EF1FF33E5
:102DE80013F0FF0E1DD0D1696B1C846BB0F84CC07A
:102DF800C1F309019C4298BF00231FFA8CFC9C4533
:102E0800ECD0046B5FFA81FC1D469C42A3EB0404E2
:102E1800E1D8436A03F804C00EF1FF3313F0FF0E44
:102E2800E1D1ABB2A0F84A30836D43B1B54254D377
:102E3800AD1B016CA94202D8C16DC3F88410536957
:102E4800D90245D49669330228D553691D0225D580
:102E5800B0F84650B0F84830ADB29BB206E0C16950
:102E6800C95CC9B2D161D16A4C0512D4AB4238D021
:102E7800446B0133C16A9C4298BF00239942A3EB7B
:102E88000104ECD8816A095DC9B2D161D16A4C05E7
:102E9800ECD599B2AB42A0F8481025D0710216D5EE
:102EA80053695B0213D50021036D80F8441013B1F8
:102EB800416DC3F88810837E2BB172B6936923F0F5
:102EC8000053936162B6936923F48003936170BDE4
:102ED800536943F480135361B4E7816B891B0D4434
:102EE800A7E79BB2A0F84830936923F400039361E5
:102EF800936943F480039361D0E700BF0148FFF76B
:102F080057BF00BF98D800200148FFF751BF00BF46
:102F1800F8D80020084601F0B3BE00BF2DE9F04103
:102F28000C46D1B1EAB180468E1800250E4F04E058
:102F380001F0A6FEB44205440CD0D8F8003014F8CD
:102F4800010B1B68BB42F3D0014640469847B44288
:102F58000544F2D12846BDE8F0810D462846BDE873
:102F6800F0811546F6E700BFF5120000054B022870
:102F780088BF034610B41C68184663685DF8044BA4
:102F8800184700BF88D80020A249A34B88422DE9E2
:102F9800F047A24C5E699A69D4F80C801BD9A04B03
:102FA800984240F20281C31A9E491B0AA1FB0313EF
:102FB80040F22761DB0903EB830303EB830303F28E
:102FC800E2438B4228BF0B46A3F54877964BA3FBF9
:102FD8000737FF0804E0954FB8428CBF0E27062735
:102FE8008D4908F01F09D1F88030B94543F0C00376
:102FF800C1F880300CD228F01F08A1F5F82148EA62
:103008000708C1F80C800B68002BFCDA08F01F09D0
:1030180016F0007324D186490C698649A14300F053
:10302800EA8082F4805134464FF4805514F0605F92
:1030380004D026F060561E43774B5E6111F4405F62
:1030480007D022F4405274492A438A618B6C1A07CC
:10305800FCD446F00076704A5661936C9B06FCD40B
:10306800754CA04200F2CE804FF0010C0146634639
:1030780003FB011203F1010E0CF10105A24218D85D
:10308800BEF1080F4FF0010340F08D80BCF1040F32
:1030980000F291800A18A24200F2A48005FB00F118
:1030A800AC4603F1010E03FB01120CF10105A2422B
:1030B800E6D90CF1FF318C0286EA81215F48104481
:1030C8005F4A90427FD9DFF8A4A16C225D48584D31
:1030D800B0FBFEF0D5F800E0B0FBFCF0DFF890C1E3
:1030E8000EEA0C0CD44509D042F400524FF4805C2F
:1030F800C5F800C02A602A68002AFCDA464A156921
:1031080005F007059D4203D01361936CDD03FCD4E1
:1031180011F4E05F09D026F4E05604F4E0543E4A86
:1031280026435661936C9907FCD44749474A0144A2
:1031380091423CD8464BC909A3FB0131090B4B1EF0
:103148001B0286EA030212F4407F06D026F440767A
:1031580003F44073304A334353612F4A536923F0D1
:1031680000735361936C9B06FCD43A4B4F45A3FB09
:1031780000234FF0FF324FEA9343B0FBF1F1B2FB6B
:10318800F3F3354A1060354A1160354A136008D2A6
:1031980028F01F08214A48EA0707D7601368002B60
:1031A800FCDABDE8F087734662E7122718E74FF4A8
:1031B80040730421C5E70CF1FF31204807238C0236
:1031C800104486EA8121274ADFF8A8A0A2FB002044
:1031D800020D2548362A38BF362202FB00F042EAA3
:1031E8000A0A74E74FEA8C24002386EA8C214FF000
:1031F800010EAC4662E71D4686F0C05411464FF0FA
:10320800C05313E700244FF0010C02463146234611
:10321800E64653E700A4781F00C00F4000000840AE
:103228000046C32323B24C001F85EB5100366E01C4
:1032380000800D4040300080FFB19F26808D5B00EC
:10324800FF7EF64D00643F4D7FD1F0087F17B42C08
:103258009F10E50083DE1B4384D8002080D800201F
:1032680024110120819F5E16001BB7006C2000808E
:103278007F3001800020008000B970472DE9F84FA9
:1032880001218146214C224D224E54E8003F2A68F4
:10329800306844E80013002BF7D11F494B684FF4FE
:1032A8007A7BDFF878A01B1A01270BFB02F8DAF803
:1032B8000020A3FB02325A4594BF9044D84454E8F6
:1032C800003F2A68306844E80073002BF7D14B6848
:1032D800DAF800C01B1A0BFB02F2A3FB0C3CBCF58E
:1032E8007A7F94BF624402F57A72A2EB0802B2F5C3
:1032F8007A7F06D3B9F1010908F57A78DFD1BDE8FC
:10330800F88F01F051FD0449D9E700BF30110120C1
:103318002C11012028110120001000E024110120A7
:1033280030B40F4B4FF0010C0E4D0F4C53E8002FEB
:103338002868216843E800C2002AF7D10B4B5B6874
:103348000B4A5B1A4FF47A71126801FB00F0A3FB79
:10335800023230BC8A4294BF80184018704700BFC0
:10336800301101202C11012028110120001000E04B
:1033780024110120272829D8164B0201012903EB23
:1033880000109A5810B45368C4680ED004290CD0A1
:1033980023EA040353608368A9B1022917D00329DB
:1033A8000CBF0D4A0D4A1A6007E0234301295360F8
:1033B800836808D040F638021A60436815225DF821
:1033C800044B1A60704738221A60F6E77047044ABF
:1033D8001A60F2E7E4C80020383001003800010024
:1033E80038F0010008B5FFF7B9F8FEF785FF01F0DE
:1033F800DBFCFAE7844641EA000313F003036DD1CE
:10340800403A41D351F8043B40F8043B51F8043B9F
:1034180040F8043B51F8043B40F8043B51F8043BA6
:1034280040F8043B51F8043B40F8043B51F8043B96
:1034380040F8043B51F8043B40F8043B51F8043B86
:1034480040F8043B51F8043B40F8043B51F8043B76
:1034580040F8043B51F8043B40F8043B51F8043B66
:1034680040F8043B51F8043B40F8043B51F8043B56
:1034780040F8043B51F8043B40F8043B51F8043B46
:1034880040F8043B403ABDD2303211D351F8043BE6
:1034980040F8043B51F8043B40F8043B51F8043B26
:1034A80040F8043B51F8043B40F8043B103AEDD295
:1034B8000C3205D351F8043B40F8043B043AF9D2E6
:1034C800043208D0D2071CBF11F8013B00F8013BB9
:1034D80001D30B8803806046704700BF082A13D3C6
:1034E8008B078DD010F003038AD0C3F10403D21ADE
:1034F800DB071CBF11F8013B00F8013B80D331F812
:10350800023B20F8023B7BE7043AD9D3013A11F891
:10351800013B00F8013BF9D20B7803704B784370FC
:103528008B7883706046704734F044BA34F042BAFE
:1035380034F048BA34F046BA34F044BA01F1FF3CEA
:1035480070B56646002400E00134B0FBF2F502FBDA
:103558001503092B03F1370E03F130035FFA8EFED2
:1035680098BF5FFA83FE9042284606F801EFEBD237
:10357800631C0022C818CA547CB162461CF8015F5B
:1035880010F8016DA1EB0C0302328CF80060013BCE
:10359800521A057023449A42EFDB084670BD00BFFB
:1035A8004FF0010C0CFA01FC01EB410100EB411159
:1035B80070B5B1F80EE01FFA8CF5254C1FFA8EFE97
:1035C80024782E010EFB033306F0F006E340B0F832
:1035D80088417345A4B228BF73463443012AA0F832
:1035E80088410DD0022A28D0C2B10CF00F02B0F8E1
:1035F80088C11FFA8CFC4CEA020CA0F888C170BD87
:103608009BB20CF00F022D02CB82B0F8803105F48A
:1036180070659BB22B43A0F88031E8E7AEEB030E50
:103628000CF00F021FFA8EFEA1F80AE0B0F8803104
:103638009BB21343A0F88031D9E79BB20CF00F027C
:10364800CB83B0F880319BB21E43A0F88061CEE7EF
:1036580083E8002001EB4103F6EE006A00EB431318
:10366800B3F80EC0314B1FFA8CFC93ED007AB8EE1C
:10367800477A70B5C7EE007A4FF0010E4E000EFA89
:1036880001FE1FFA8EF577EEA67AFCEEE77A17EEC2
:10369800903AB3F5803F46D300224FF6FF745B089B
:1036A8000132A34201D9062AF9D9120142F48062F3
:1036B80092B2022B4FF6FF744FEA0515314438BF1A
:1036C80002230EF00F0EEDB2A34200EB411128BF0A
:1036D8002346B0F88841A4B22C43A0F88841CA8098
:1036E8005A1E92B2CA814A8992B203FB02F2B2FB15
:1036F800FCF292B24A81CA8A92B203FB02F2B2FB8E
:10370800FCF292B2CA82CA8B92B202FB03F3B3FBF9
:10371800FCF39BB2CB83B0F888319BB243EA0E032B
:10372800A0F8883170BD4FF48062C2E780D80020CD
:10373800214BF6EE006A4FF6FE7C93ED007AB8EE68
:10374800477AC7EE007A77EEA67AFCEEE77A17EEAC
:10375800903A63452CD900225B080132634501D9B0
:10376800062AF9D9083242F2260C4CEA422C1FFAF2
:103778008CFC022B00EB41114FF6FE7038BF022380
:103788000A8A834292B228BF0346C88880B2C0F131
:103798000110104403FB02F2B2FBF0F29B1A92B242
:1037A800C3F101039BB2CB800A82A1F80CC0704719
:1037B80043F2260CDDE700BF80D8002027284BD82D
:1037C800F8B52A4D044615F8202005EB8005012A96
:1037D8002DD0022A3FD16B78C3F3011003283ED0C5
:1037E800234A02EB803203F0030C224889B2634675
:1037F80002EB4C1C0678BCF806E05801BCF8103007
:103808001FFA8EFECEF1011E1EFA83F303F1FF3E6E
:103818000EFB01F1F1408E4523D95B1AC3F1010378
:103828009BB289B20244ACF8063011820DE06A7886
:10383800C2F30113032B10D00F4800EB83308BB277
:1038480002F00301AA78FFF7ABFE0C4BEA7803EB12
:1038580004135B681A60F8BD70470948EFE7094A26
:10386800C1E7991E4FF6FF73DBE700BF28CC0020A5
:1038780000C01D4083E8002000C03D40E4C800208F
:1038880000803E4000801E40272808D8154B13F8BA
:10389800202003EB8003012A02D0022A0DD07047B2
:1038A8005978C1F30112032A13D00F4801F003011C
:1038B80000EB82309A78FFF7CDBE5978C1F3011337
:1038C800032B0CD0094800EB833001F00301FFF70C
:1038D8002FBF074801F003019A78FFF7BBBE0548E0
:1038E800F3E700BF28CC002000C03D4000C01D40C9
:1038F80000803E4000801E4000230F2248F2B82C72
:10390800194610B54FF470444FF4806EA0F88C41FE
:103918004FF46044A0F88E210A46A0F89031B0F820
:1039280088319BB243F0F003A0F8883101EB4103E2
:10393800013100EB431304299C80A3F806E05A8464
:103948001A865A805A81A3F80EC05A82DA825A839C
:10395800DA83EBD1B0F888319BB243F00F03A0F8BB
:103968008831B0F888319BB243F47063A0F888318D
:1039780010BD00BF374B384A996F384841F47F0172
:1039880070B5996741F20106D3F8801045F6C05525
:1039980043F226040A43C3F88020FFF7ADFF00F581
:1039A8008040FFF7A9FF00F58040FFF7A5FF00F56D
:1039B8008040FFF7A1FF0022A0F503104FF00F0E83
:1039C800114600EB42134FEA421C01329981042A46
:1039D8005981A3F80EE09E82DD8020F80C10198230
:1039E8009C81EED100221E484FF00F0E41F20106D5
:1039F800114645F6C05543F2260400EB42134FEA40
:103A0800421C01329981042A5981A3F80EE09E8252
:103A1800DD8020F80C1019829C81EED1002211481B
:103A28000F2641F20105114645F6C05443F2260E11
:103A380000EB42134FEA421C01329981042A598152
:103A4800DE819D82DC8020F80C101982A3F80CE03E
:103A5800EED170BD00C00F40000003FC00C03D4027
:103A680000001E4000401E4010280346044A28BF9C
:103A780010231078012B38BF01231370704700BF43
:103A880083E8002072B6EFF30583524CC4F8843003
:103A98001EF0040F0CBFEFF30882EFF309824FF01A
:103AA800E0234D4E4D4DD3F8280DD3F82C1DC4E915
:103AB8002201D3F8341DD3F8383DC4E9241393699F
:103AC800C4F89830D369C4F89C3000F0DDF884ED70
:103AD800280A01F009FA0B214FF0FF32C4F8A400BC
:103AE8000B46C4F880103E49301D5A40202402F08D
:103AF8000103013C01FB03F383EA5202F7D1A84218
:103B080002D073680646EFE7324BC3F8A820BFF32C
:103B18004F8F4FF0E0233049324AC3F8701FC3F883
:103B2800702FBFF34F8FBFF36F8F2F4A02252F4897
:103B3800D36E2F4943F44053D3660560D3692D48AB
:103B480023F07F0343F04003D3610B6883423DD8E1
:103B5800264D00214FF0E0234FF0FF322960012667
:103B6800C5F808112449C5F80011C5F80861C3F85B
:103B78008021C3F88421C3F88821C3F88C21C3F8B5
:103B8800902101E000F072F9D5F80C31002BF9D042
:103B98000134C5F80C614F2CF4D9184B0220184990
:103BA8004FF00042C1F840015A63D5F80C313BB9D7
:103BB800144815490D4A0163D2F80C31002BFAD08C
:103BC8004FF0E023114AC3F80C2DFEE7FFF7DCF9AC
:103BD800BEE700BF00FF272080FF2720A8FF27207F
:103BE8002083B8EDA0FF272000C00F400040084008
:103BF80084D80020803DCD0B009F240000900D400C
:103C080000002E4000800F40F100AD0B0400FA05C3
:103C18000A490A6838B108B513180948834204D814
:103C280010460B6008BD104670473AF05BF80C234D
:103C38004FF0FF320360104608BD00BFACDA002029
:103C480000002820002070474FF0FF30704700BF69
:103C58004FF4005300204B60704700BF01207047AD
:103C68004FF0FF30704700BF30BFFDE70078B0FA73
:103C780080F04009704700BF01230370704700BF00
:103C880030BFFDE7FFF7FEBE124AD2F880305B076F
:103C9800FBD5D2F880301048C3F30B230F4990EDC1
:103CA800007A07EE903A91ED006AB8EE477A0C4A2E
:103CB800F8EEE77A0B4BD2ED006A77EEC77A93ED10
:103CC800007AB8EE477A67EE867A87EEA60A37EE6C
:103CD800400A704700810D40341001203C1001203B
:103CE8004010012038100120836BF0B41BB15368D9
:103CF80043F40043536072B6446B3CB31A4B2260E2
:103D0800D3F8B0410C421DD1184E776804E07468AE
:103D1800E41BB4F5166F0BD2D3F8404144F4804449
:103D2800C3F84041D3F8B851D3F840416404EED504
:103D38000D4007D10C4CC0E90225D4F8B0310B4333
:103D4800C4F8B031426362B6F0BC7047064DC0E9B2
:103D58000224D5F8B0310B43C5F8B0310263426391
:103D680062B6F0BC704700BF00002E40001000E0B3
:103D780070B5056B9DB106462A46002403E012681B
:103D88000134012A0CD0536813F08003F7D0326352
:103D98002CB12846B36B2D689847013CF9D170BD0A
:103DA800C6E90C33F4E700BF30B4D9B91F4C204B37
:103DB8000021204A01254FF0011099601D60C4E9D7
:103DC800023180245C60C2F8BC01D2F8B0311A48D4
:103DD8002B43C2F8B0310160D2F8B031002BFBD1CF
:103DE80030BC70470904154B104C012541F0800187
:103DF8009860104A596000F580511D60D96000F53F
:103E08000051A364196100F5405100F580405961E3
:103E180000219861E164D2F8B03143F48033C2F8EC
:103E2800B031D2F8B031002BFBD1C0E70000002040
:103E3800C0EE002000002E40080E0120E0EE002019
:103E4800084901220B7802FA00F023EA0000087002
:103E580030B9054AD2F8483123F08003C2F8483116
:103E6800704700BF5511012000002E402DE9F04F8A
:103E7800974C83B0D4F84471FB07C4F8447153D508
:103E8800D4F8AC21002A4AD0924EDFF860A2DFF8BD
:103E98007492DFF874B2DFF87482C4F8AC21D6E902
:103EA8000A20D4F8403143F40053C4F84031D4F820
:103EB80040319D04F5D5D4F8403123F40053C4F8BB
:103EC80040314FF00113C4F8B431D4F8B45115F0AF
:103ED8000115FAD193B28446CAF80050B3F5086FB9
:103EE80000F0CF8100F2DB8040F202318B4200F01B
:103EF800E78100F29A80822B00F0CB81B3F5817FB5
:103F080040F08A8010F0780F83B200F003824FF0FF
:103F18000113C4F8C031D4F8AC21002ABDD16C4AD1
:103F2800D2F8BC31002B42D17E0616D5684BD3F8A7
:103F3800AC21C3F8AC21D3F8BC21C3F8BC21D3F819
:103F4800B041002CFBD14FF0FF32C3F8B421D3F8B5
:103F5800843100F02DFD604B1C60FC0103D55F4BE4
:103F68001B6803B19847B80103D55D4B1B6803B1C3
:103F78009847790708D5564BD3F8843113F4007362
:103F880047D0584B01221A70514BD3F848311A06C2
:103F98000AD53B0608D5544A13782BB1013BDBB24E
:103FA8001370002B00F0728203B0BDE8F08F4F4908
:103FB800C2F8BC310868034240F0D181464A14680F
:103FC8001C40B1D05FEA144810D0424E4FF00109AE
:103FD80098FAA8F5B5FA85F506EBC51009FA05F5BE
:103FE8004030FFF7C5FE38EA0508F1D1A4B2002C2D
:103FF8009AD0384E4FF0010894FAA4F5B5FA85F531
:1040080006EBC51008FA05F5FFF7B2FEAC43F3D18D
:104018008AE7344A1370B7E7802B7FF478AF3448C7
:1040280002210580FFF7C0FE75E7B3F5A06F00F029
:104038000B81A3F5D063012B3FF669AF2D4B5D686B
:10404800002D3FF464AF1FFA8CFC4FEA124E04E0D7
:104058001D690C33002D3FF45AAF1A887245F7D109
:104068005A886245F4D14FEA1E22032A00F0A5813E
:104078001A89000C824228BF0246BEF5007F40F034
:10408800A181184B1C4918781C4B0192002818BFB5
:1040980019461B48FFF7AEF9194D019AE1E142F2C2
:1040A80021218B427CD033D942F221318B4200F05E
:1040B80081804FF6C0018B427FF429AF10F47F4F07
:1040C80083B27FF424AF43F46E4363F30F0CB5E778
:1040D80000002E40000000200C0E0120401101209D
:1040E800441101205B1101205C110120080E012000
:1040F800FC0F01208CD50020541B0060B81B006009
:1041080000002020000E01205DCFC6B8C0012E405F
:10411800B3F5106F66D042F221018B427FF4F7AEFF
:10412800030C072B7FF4F3AEB24BB349F560D960AB
:10413800B249B360C3F80890C1E9002001221A60AF
:10414800AF4A5A60AF4A1A61D4F8B01141F0010180
:10415800C4F8B01102F5805102F5005259619A6114
:10416800D4F8B031002BFBD1A74AF3649360012344
:10417800B264136048F2800353604FF00113C4F82F
:10418800BC31D4F8B03143F48033C4F8B0314FF4C3
:104198008033CAF80030D4F8B031002BFBD1BAE62E
:1041A80080B238B9994BC2F307421968984B196025
:1041B800984B1A70944B00229A60F2640122B364FF
:1041C8001A6080225A604FF00113C4F8BC31D4F849
:1041D800B03143F48033C4F8B031D4F8B031002B97
:1041E800FBD198E6C2F307428B4B1A708B4BC4F88D
:1041F800C8318B4BC4F8CC318A4BC4F8D03100F0AD
:10420800D9FB80222946884836F006FD874B802254
:10421800C6F8A0B0C6F8E0307B4BF5645A600122BE
:10422800B3649D601A604FF00113C4F8BC31D4F830
:10423800B03143F48033C4F8B031CAF80050D4F830
:10424800B031002BFBD166E66F4B0121F564196094
:1042580080219D60B36459604FF00113C4F8BC31EC
:10426800D4F8B03143F48033C4F8B031D4F8B03165
:10427800002BFBD1130C5B0643F08073C4F8543158
:1042880049E6654B01216A481B780370FFF78CFDEE
:1042980041E683B210F078007FF439AE03F07F0274
:1042A80058F82210624A1080180600F19E80CB0749
:1042B80001D50123137002215D48FFF775FD2AE639
:1042C80010F0780F83B27FF422AE03F07F0213F070
:1042D800800F58F8223014BF43F4803343F00103B1
:1042E80048F822300022484BF2649A600122B364F5
:1042F8001A6080225A604FF00113C4F8BC31D4F818
:10430800B03143F48033C4F8B031D4F8B031002B65
:10431800FBD100E603F07F0213F0800F58F822303B
:1043280014BF23F4803323F0010348F8223000221D
:10433800354BF2649A600122B3641A6080225A6095
:104348004FF00113C4F8BC31D4F8B03143F48033D2
:10435800C4F8B031D4F8B031002BFBD1DBE5002034
:10436800086026490C88486842F221018C427FF493
:1043780025AE80B200287FF421AE2E492E4C03C909
:10438800A18086284FEA11412060A1717FF416AE02
:1043980072B62A48017841F008010170D2F8481134
:1043A8000D0605D480200143C2F84401C2F8481123
:1043B80062B6234A5021117000E6000C2A78824226
:1043C80028BF0246BEF5E06F44D11E4B1E4D18783B
:1043D8001E491F4B0192002818BF19462846FFF7AF
:1043E80009F807236B70019A3BE0C9033FF561AFF9
:1043F80061E700BFE0EE0020001E012080F00020F1
:1044080080000700002E0120C0EE00202C110120A2
:104418003C110120591101205A1101200200CC0041
:10442800C80002000200C800800000201993D5745B
:10443800FC0F0120000E012034110120551101202C
:104448005C1101205B11012000002020B81B0060D6
:10445800541B00602946104D01922846FEF7CAFFFA
:10446800019A25F01F031544BFF34F8F4FF0E02149
:10447800C1F8703F20339D42FAD8BFF34F8FBFF386
:104488006F8F05481146FFF78FFC44E50320FFF7BF
:10449800D7FC46F0C9FE00BF000020202DE9F047F8
:1044A8001F46831E022B01D9BDE8F087DFF84C9028
:1044B80015460C463C2209EBC01806464FEAC01ABE
:1044C800002108F10400240436F0A6FBB5FA85F2B1
:1044D8000123520944EA427449F80A40C8F838707E
:1044E800C8F80830002FDFD0034AB34011680B43E7
:1044F8001360BDE8F08700BF0C0E0120000000200B
:104508002DE9F0470D46811E022901D9BDE8F08743
:10451800C701DFF84C909246044640373C22002100
:104528001E4609EB07082D0408F1040036F074FB59
:10453800BAFA8AF2520945EA427249F8072001227A
:10454800C8F83860C8F80820002EDFD0034B1034B4
:104558001968A2400A431A60BDE8F0870C0E0120D2
:104568000000002012048160C36101F5405342F04D
:10457800800210B40124426001F50052046001F584
:10458800805401F58041C46081615DF8044BC0E945
:1045980004237047831E0A46022B00D97047064B36
:1045A80000F110014FF0010C03EBC0100CFA01F1FF
:1045B8004030FFF799BB00BF00000020831E0A4669
:1045C800022B00D970470121024B814003EBC01038
:1045D800FFF78ABB0000002040687047124A134B5F
:1045E800D2F8200220F07F40984210B584B002D261
:1045F80000EB800040000E4C01A90A22FEF79EFF46
:1046080001A90023204611F8012B01333AB10A2BE6
:1046180020F8022FF7D11623237004B010BD5B00D9
:10462800DBB2237004B010BD00441F408096980090
:104638006CE8002000F0DCBA00F0ACBA00F010BB67
:1046480000F0CABA00F066BB00F03CBB0846114651
:1046580000F02CBBF8B5144C4FF0E025134E4FF486
:10466800003204EB4024124F06EB40160346C5F80F
:104678008C2121463A883046FFF774FF3B88234453
:10468800BFF34F8FC5F85C4F2034A342FAD8BFF36D
:104698004F8FBFF36F8F03203146FFF78FFF4FF423
:1046A8000033C5F80C31F8BD8000202000EF002051
:1046B80048110120244B2DE9F0411C884368C56945
:1046C800C3F30E43E41A002C24DD204920480A785D
:1046D8000078D3B21F4E82421F4807D010F80380DB
:1046E80036F81870C7F50072944218D901330022C1
:1046F80026F81540082B194E88BF134626F81520B2
:1047080098BFDAB2C554164B0A701A6814441C6074
:10471800BDE8F0812846BDE8F041FFF79BBF07EBF5
:104728004820104922462744084401EB4521FEF75A
:1047380061FE0B4A284626F8187013682344BDE822
:10474800F0411360FFF786BF481101205311012083
:1047580054110120081001202810012018100120F0
:1047680004100120800020201D4B1A78002A36D121
:1047780002F0FF031B4A12788AB32DE9F0411A4D63
:104788002A8852B3194EC2F50068194F3278194C6D
:1047980007EB421704EBC224424638462146FFF78E
:1047A800E1FE04EB0802BFF34F8F4FF0E023C3F89C
:1047B800704F2034A242FAD8BFF34F8FBFF36F8FE8
:1047C80004203946FFF7E6FE33780133DBB2032BCA
:1047D80088BF0023337000232B80BDE8F081704729
:1047E800581101205A1101204A11012057110120A6
:1047F80000F00020801020202DE9F04F85B0CDE991
:104808000110002900F0BF800023604CDFF8988178
:10481800DFF898A15E4F009301235E4A23705E4B38
:104828001978B8F8003002EB4119002B40F0A78046
:104838001E461D469B464846FFF7CEFE10F08000F8
:1048480000F08C80BFF34F8F9AF8003084F800B0E6
:1048580005B93E68002B7DD13B689B1B782B00F285
:1048680087804E4B1B78002B74D000F09DFA0122F4
:10487800B8F8003015462270002BDCD0464AC3F544
:10488800006011781A4600EBC120454DC902284442
:10489800019D954217D20393DDE901512A46FEF79F
:1048A800A9FD039B4FF040425B1BA8F800303D4B2D
:1048B800C3F88420BFF34F8F009800232844237047
:1048C80005B0BDE8F08F364BCD180299FEF792FD82
:1048D80000234FF4006229464846FFF743FEBFF322
:1048E8004F8F05F1200205F50063934234BF012381
:1048F80040234FF0E02205EB4313C2F8705F2035E8
:10490800AB42FAD1BFF34F8FBFF36F8F04204946F4
:10491800FFF740FE204A13780133DBB2032B84BF34
:1049280000231D4A1370B8F80030019AD11A009A72
:104938001A4401910092029A1A4400230292194AD9
:10494800A8F80030C2F88430BFF34F8F23700029D5
:104958007FF462AF009805B0BDE8F08F4FF40062B5
:104968000D4B8AF8000019781346A8F800208AE74A
:10497800012300988AF8003005B0BDE8F08F1A4688
:10498800C3F500607FE70198E5E700BF58110120F3
:104998002C11012000F00020571101205A1101208C
:1049A8008010202000002E404A11012056110120BD
:1049B800704700BF2D4B002180222D4870B51B7811
:1049C80000242C4D8B422C4E0CBF40234FF4007317
:1049D8002B80338036F020F9284A2146284B147062
:1049E8004FF4807227481C8036F016F9264A1021A9
:1049F800264B0220C2E90044C2E90244244AC3E922
:104A080000441470234AC3E90244234B1C70234614
:104A180014602246FFF774FD2246318803201F4B9D
:104A2800FFF73CFD2346012229880420FFF768FD93
:104A380020460134FFF70EFE082CF9D1184B00214F
:104A48004A221848184C0460C3F88410C3F8802020
:104A5800D3F84821154942F08072C3F8482121B1A2
:104A6800134A137843F00103137070BD5B110120E2
:104A780000F000204C11012048110120571101209D
:104A88004A11012000EF0020081001201810012011
:104A9800531101200410012054110120952A00000F
:104AA80000002E4040110120492B000000000000AA
:104AB8005D1101202DE9F04F4FF0E0234FF4003253
:104AC800DFF8C8A083B0C3F88C218B469AF8004061
:104AD80000294FD08046E4B20027DFF8B490264B77
:104AE800ABEB070225491B78A34204F101043FD030
:104AF800092C234B404628BF00241E5D39F816C0F8
:104B08000CEB462319441F4B33F81650A5EB0C0544
:104B1800AA421CD20CEB462C18491B4C614401924A
:104B2800FEF768FC216839F816505846019AA1EB3F
:104B38000B012A44394429F8162021604FF0E0235C
:104B48004FF40032C3F80C2103B0BDE8F08F2A46B9
:104B58002F44FEF74FFC0C49E3B230460A68A844DC
:104B6800521B0A608AF80030FFF774FDBB45B6D8BF
:104B78003846E3E70846E1E753110120800020208A
:104B880028100120081001200410012054110120D0
:104B9800181001200B4B0C4A12781978D3B28A42AC
:104BA8000DD0013309480A4A092B0A4928BF0023B6
:104BB800C35C31F8131002EB4323585C70474FF085
:104BC800FF30704753110120541101202810012093
:104BD8008000202018100120044B10B51C680CB16F
:104BE800204610BD00F0E0F8204610BD041001205A
:104BF8002DE9F84F144E154D33782A78934221D079
:104C0800DCB2DFF85090DFF850B0DFF85080104F7A
:104C18000134082C5FFA84FA01D90024A24619F855
:104C28000400DBF8003038F8102037F81010521A5A
:104C38009B1ACBF80030FFF70DFD86F800A02B7803
:104C4800A342E5D1BDE8F88F54110120531101208A
:104C5800181001202810012004100120081001203C
:104C680000B583B001210DF10700FFF723FF20B144
:104C78009DF8070003B05DF804FB4FF0FF30F9E73B
:104C8800094B00B583B01B788DF807003BB10121B3
:104C98000DF10700FFF7B0FD03B05DF804FB03F06A
:104CA800FF0003B05DF804FB5A110120044B1B7888
:104CB80003F0FF020BB1FFF79FBD1046704700BF1E
:104CC8005A1101202DE9F0410024DFF84480012326
:104CD8000D4D27460D4E88F800303378284620358C
:104CE800A34204F1010405D0FFF776FC030658BF80
:104CF80007F50067042CF0D1BFF34F8F0023384627
:104D080088F80030BDE8F08100F00020571101203C
:104D1800581101202DE9F8431D4B1B7813B11D4D87
:104D28002A880AB9BDE8F8831B4EC2F500691B49F9
:104D380033784A461A4C01EB43181A4F04EBC32444
:104D4800012340463B7021460023FFF70BFC04EB90
:104D58000902BFF34F8F4FF0E023C3F8704F2034A0
:104D6800A242FAD8BFF34F8FBFF36F8F042041469A
:104D7800FFF710FC33780133DBB2032B88BF002325
:104D8800337000232B80BFF34F8F3B70BDE8F8834F
:104D98005A1101204A1101205711012000F000206A
:104DA80080102020581101202DE9F8432D4B1E7842
:104DB80066B12D4F3B784BB90123F1073B7043D4C3
:104DC800B20726D400233B70730701D4BDE8F883EB
:104DD800264B1A68002AF9D0EFF30582002AF5D18C
:104DE800EFF3108572B61868002834D0204C21786B
:104DF800002930D10122227042691A60002A2ED07F
:104E0800916105B962B60025836845779847257092
:104E1800DCE7DFF8648098F80030002BD2D000255A
:104E2800DFF858902B4659F823400135236820466F
:104E38001B69984710B163699B68984798F80020E8
:104E4800EBB29A42EFD8BDE7FFF7C6FE0028B7D00D
:104E5800AFF30080B4E7002DB8D162B6B6E7054BD2
:104E68001A60CEE75D110120501101208003012056
:104E78004E1101208C0301204F11012080040120D4
:104E880070B5EFF3108272B60C4C206880B10C4EEE
:104E980000254369236073B19D6102B962B68368D6
:104EA80045779847EFF3108272B620680028F0D152
:104EB80002B962B670BD3360EFE700BF8803012016
:104EC80084030120FFF7DCBF0449054A4968054B04
:104ED8001960136801331360704700BF001000E0C9
:104EE8002C11012028110120074A506A936A19469B
:104EF8008446506A936A9942F9D18445F7D1DB0B0D
:104F080043EA4040704700BF00400D400346084652
:104F1800194638F0A3BE00BF2DE9F04FD04FD14D50
:104F28003968DFF89093D04B8E68DFF84C83DFF850
:104F380088B3002483B00122C5E90094C5E902447E
:104F4800C5E90444AC6105F11C001A7001F094F83D
:104F58003B682E624FF0FF3A5B68C8F80090C8E9DA
:104F68000144C8E90344C8E90544C5F824A008F188
:104F78001C00C5F800B0019301F07EF8019BBB4E00
:104F8800C8F820303B68C6F80090C6E90144DB68E1
:104F9800C8F824A0C6E90344C6E9054406F11C0084
:104FA800C8F800B0DFF8FC92019301F065F8019BA6
:104FB800DFF80883C6F800B0C6E9083AA9F1040684
:104FC800484608F1140A12F045FBC6E91F44C6E931
:104FD800214429467467A6F8784049F8048C484665
:104FE800C6F804A012F0D0FAA14C204612F032FB09
:104FF800A04B44F8083C143323600023C4E91E3353
:10500800C4E920332367A4F8743044F8043C2046EC
:105018009949083C12F0B8FA984DA5F104092846B8
:1050280012F018FB0023C9E91F33C9E921338F495E
:1050380045F8048C2846C9F804A0C9F87430A9F8C2
:10504800783012F0A1FADFF868B2ABF104055846DF
:1050580012F000FB0023C5E91F33C5E9213383495A
:105068004BF8048CC5F804A058466B67A5F878304F
:1050780012F08AFAD9F81030814DDFF844B2A667E9
:1050880043F40053C9F810303B68C9F87460002431
:105098009E68AC61C5E900B4C5E90244C5E90444A9
:1050A80005F11C0000F0E8FFDFF8E8813B682E629C
:1050B8004FF0FF39DFF80CA25B68C5F800A0C5F80F
:1050C8002490C8F800B0C8E90144C8E90344C8E915
:1050D800054408F11C00019300F0CEFF019B694EC6
:1050E800C8F820303B68C6F800B0674FD3F80CB05A
:1050F800C8F82490C8F800A0C6E90144C6E90344EA
:10510800C6E9054406F11C0000F0B6FFDFF8B881D7
:10511800C6F800A0C6E908B9384612F09BFA294635
:1051280008F114093D1FC5E91D44C5E92044C5E936
:10513800224447F8048C384685F87C40C5F804902A
:1051480012F072FA514C204612F084FA504B44F88F
:10515800083CA4F108061433B3600023C6E91E33E3
:10516800C6E92133C6E923334A4986F88030204608
:10517800736012F059FA484F3C1F384612F06AFA29
:105188000023C4E91D33C4E92033C4E922333D496F
:1051980047F8048C3846C4F8049084F87C3012F040
:1051A80043FADFF808A1AAF10407504612F052FAB0
:1051B8000023C7E91D33C7E92033C7E92233314942
:1051C8004AF8048CC7F80490504687F87C3012F0EF
:1051D8002BFA324922690B68B56742F40052013351
:1051E800226165670B6003B0BDE8F08F2C4B7360DC
:1051F8002C4812F06BFA26F0C3FE2B4B7B602B4831
:1052080012F064FA26F0BCFE274B6360224812F0C5
:105218005DFA26F0B5FE244BB3601C4812F056FA2E
:1052280026F0AEFE204B6B60174812F04FFA26F0BE
:10523800A7FE1B4B6B601E4812F048FA26F0A0FE32
:10524800174BC9F804300D4812F040FA26F098FEC2
:10525800134BA360064812F039FA26F091FE00BFFE
:105268005CE00020E003012082E80020B803012070
:1052780048060120D03B002090030120D4060120DD
:1052880058040120300401202C0A01207C08012048
:10529800883D0020080401200C0901200C0601208B
:1052A80028440020EC070120384400209C090120F4
:1052B80060070120E83D00206C340020F83B002006
:1052C800283E0020AC340020B03D0020074A136877
:1052D800591C116003B1704700B583B00190FFF706
:1052E8001BFE019803B05DF804FB00BF0C0601200B
:1052F800114A1368591E022B10B50446116001D0DB
:10530800204610BD0D481BF0D9FF0D481BF0D6FFF5
:105318000C481BF0D3FF0C481CF00CF80B481CF091
:1053280009F80B481CF006F8204610BD26F0B0FF1F
:1053380026F0ECFFE4E700BF0C060120E807012097
:10534800D00601205C070120280A01200809012055
:1053580098090120704700BF10B50446FEF7E8F829
:10536800204610BD044A0B6812680360934202D0BD
:105378001A6801321A6070478C0501200160704775
:1053880010B5054C206800B110BD024603492046FF
:1053980028F02EF9206810BD9405012090120020F5
:1053A800004870479012002070B505464068E8B183
:1053B800AB68CBB1304E002403E0AB680134A342A4
:1053C80011D950F82420002AF8D05368591E012B0F
:1053D8005160F2D113685B68B342104637D1FEF7CB
:1053E800A7F86868E9E708B1FEF7A4F8E868E8B143
:1053F800AB68CBB1204E002403E0AB680134A34274
:1054080011D950F82420002AF8D05368591E012BCE
:105418005160F2D113685B68B342104619D1FEF7A8
:1054280087F8E868E9E708B1FEF784F82B6963B103
:105438000024185910B1FEF77DF82B690434182C94
:10544800F7D113B11846FEF775F8284670BD98478E
:10545800C7E79847E5E726F01BFF26F057FFC0E7A8
:1054680026F016FF26F052FFDBE7013102D126F0C5
:105478009DFEFAE726F084FD3937000038B50A4B5F
:1054880005681B689D42044604D02B685A1E012BF0
:105498002A6001D0204638BD2846FFF785FF2846F8
:1054A800FEF746F8204638BD8C0501200F4B1A68D8
:1054B8000B68934270B50E46044602D01868013056
:1054C80018602568AA4204D02A68501E012A28605C
:1054D80002D02360204670BD2846FFF765FF2846A6
:1054E800FEF726F833682360204670BD8C0501203E
:1054F800002A00F0E5802DE9F04F0C6883B00546DE
:10550800164624B9A94B1C6801341C600C60AB68B2
:10551800671E013BBB425CD204F103086FF0604395
:10552800984534BF4FEA880A4FF0FF3A5046D5F8FD
:1055380004B0FDF7FBFF8146A86868B16B6803EB10
:10554800800CA9F10402043BACF1040C53F8041FCD
:1055580042F8041F9C45F9D1804507D9A8EB000201
:10556800920009EB8000002135F056FB5046D5F833
:105578000CA0FDF7DBFFD5F808C00346BCF1000F0F
:105588000CD0EA6802EB8C0E011F043AAEF1040E4F
:1055980052F8040F41F8040F7245F9D1E04509D9D2
:1055A800A8EB0C0203EB8C0092000021019335F06C
:1055B80033FB019BEB60C5E90198BBF1000F02D0FA
:1055C8005846FDF7B7FFBAF1000F02D05046FDF775
:1055D800B1FFD5F80480736858F827C001337360A9
:1055E800BCF1000F43D0724A1168002938D06F48C7
:1055F8000EE0D2F804E0DEF8003023B90368013386
:105608000360CEF800309C4269D052F8081F39B3C5
:105618000B681BB90368013303600B609C42E8D137
:1056280051680B6823B9614A1368013313600B6032
:105638005C1E58F824309BB130460DF0DBF98146EA
:1056480058F82400D9F804300133C9F80430436805
:105658005A1E012B426068D048F8249058F827C099
:10566800DCF804305A1E012BCCF804202DD0AA688F
:1056780048F827600AB30024EB68DFF8388127462A
:1056880004E0AA680F600134A24216D953F8240036
:10569800A60003EB84010028F5D0426802F1FF3C24
:1056A800012AC0F804C0ECD103685B68434508D1FF
:1056B800FDF73EFFEB689919E3E703B0BDE8F08F0B
:1056C80070479847EB689919DBE7DCF80030394AEE
:1056D8005B689342604626D1FDF72AFFC7E70B684F
:1056E80023B9324A1368013313600B605C1E58F803
:1056F8002430002BB4D0304604F0B8FE814658F868
:105708002400D9F804300133C9F8043043685A1E1C
:10571800012B4260A0D10368264A5B6893420BD1F3
:10572800FDF706FF98E79847A1E70368214A5B68F9
:105738009342F5D098478FE798478DE726F0A8FD64
:1057480026F0E4FDBEE726F0A3FD26F0DFFD8EE798
:1057580026F09EFD4846FDF7EDFE27F0E9F926F014
:1057680097FD26F0D3FD77E726F092FD26F0CEFDD3
:1057780072E7013115D126F019FD013105D126F066
:1057880015FD013103D126F011FD26F0F9FB26F0B5
:10579800F7FB26F0BBFD26F0F3FB013103D126F021
:1057A80005FD26F0EDFB26F0EBFB00BF9005012080
:1057B800D4110020393700002DE9F041374C236817
:1057C800BFF35B8FDB0707460E4615464AD5344BB9
:1057D8001C68002C3AD033489C460BE023B901687A
:1057E800013101600B461160013B9D4243D05CF8DA
:1057F800084F5CB3236823B902680132026013467C
:105808002260013BDCF804209D421368E6D1002B9E
:105818003BD0013BFA6852F8251051B1A6B1336864
:10582800214A5B689342304635D1BDE8F041FDF727
:105838007FBE7168481C7060581C42F8256003D010
:105848000231716042F82360BDE8F081FB6853F8CB
:105858002520002AE2D172680132726043F825607F
:10586800BDE8F0812046FEF701FA0028AFD02046B7
:10587800FEF702FAABE7226822B90A4B1A6801322E
:105888001A6022602B46551EC4E706490B6801338F
:105898000B601360BDE7BDE8F04118470CF4002029
:1058A800D4110020900501203937000003682BB976
:1058B80003490A6801320A6013460260581E70479D
:1058C800900501202DE9F04FC54C0160302389B0C7
:1058D80006468360C0220021204635F09DF9C14B61
:1058E800746000211846C02235F096F9BE4DBF4AB3
:1058F8000024C6E90302C2E90054C2E90244C2E92D
:105908000444FFF74DFD02882A80B9480123224646
:10591800214605F08FFFB64AB6493046FFF7E8FD45
:10592800B548012127F004FFB34AB4493046FFF7D0
:10593800DFFDB34CB348B44A846001230021C4E9B5
:1059480000234360B14B2174C4E90211C4E9051175
:10595800C4E90711A18484F86410036001F07EF89B
:10596800A84AAB493046FFF7C3FDAA4AAA4B1360C1
:10597800012151603046A949FFF7BAFDA84AA94B51
:105988001360012151603046A749FFF7B1FDA74CCC
:10599800A74B0122C4E90032FFF7F2FCA060A54939
:1059A80022463046FFF7A4FDDFF840A3A24AA348E9
:1059B8000123CAE90023C0E9013A0022A04BAAF852
:1059C8001020CAE90222CAE90522CAE90722CAE95F
:1059D8000922CAE90B228AF81220CAF834208AF868
:1059E80043200360114600F0CDFB944A95493046A8
:1059F800FFF77EFDDFF8F89293480123C0E90139EB
:105A0800C9F80430914BC9F800300022904BA9F82E
:105A18001020C9E90222C9E90522C9E90722C9E912
:105A28000922C9E90B2289F81220C9F8342089F81B
:105A380043200360114600F059FB834A85493046EC
:105A4800FFF756FD844A854B136001238449536050
:105A58003046FFF74DFD834A834B1360012383498A
:105A680053603046FFF744FD814D82492960002389
:105A78000122C5E90123C5E90333C5E90533C5E9B1
:105A88000733C5E90933C5E90B33C5E90D33C5E962
:105A98000F33C5E91133C5E91333C5E91533C5E932
:105AA8001733C5E91933C5E91B33C5E91D33EB675E
:105AB8007148C5E920332946C5E92233C5E92433AD
:105AC800C5E92633C5E92833C5E92A33C5E92C33A6
:105AD800C5E92E33C5F8C03085F8C43012F0DEFBB6
:105AE800654A66493046FFF703FD654A654B136012
:105AF8000123654953603046FFF7FAFC634A644B5B
:105B080013600123634953603046FFF7F1FC624894
:105B180001210AF057FD604A60493046FFF7E8FC6A
:105B28005F48012105F056FE5D4A5E493046FFF7A1
:105B3800DFFC5D48012127F013FE5B4A5B493046D4
:105B4800FFF7D6FCDFF8ACB159480123CBF8043095
:105B58004360584BCBF80030574BC0F808B00021D1
:105B68000360CBE90211CBE90511CBE90711CBE9B9
:105B780009118BF810108BF8241100F0FBFF4C4A28
:105B88004E493046FFF7B4FC4D4A4E4B1360012393
:105B98004D4953603046FFF7ABFC4C4A4C4B136001
:105BA80001234C4953603046FFF7A2FC4A4C4B4B4B
:105BB800236001236360FFF7E3FBA06048492246A6
:105BC8003046FFF795FCDFF8308146480123C8F8D6
:105BD80004304360444BC8F8003000228EE000BF18
:105BE800A0020120B001012088FA002098010120BC
:105BF80094FA00208405012070020120EC050120A0
:105C080000F600200CF50020683E0020A43A002091
:105C1800BC0501206003012020420020FC05012072
:105C28007003012098420020040601208802012008
:105C3800343A0020AC050120A83E0020B0F5002031
:105C4800643900209C050120BCF50020B83E0020E6
:105C580098390020A005012054F50020443B00207D
:105C6800CC05012064F50020743B0020D4050120F8
:105C780090F70020883E002074F50020CC04012015
:105C880024F50020EC3A0020C405012034F500205A
:105C9800EC43002028060120ECF40020B405012084
:105CA800B4FC0020880501207C020120F0050120B9
:105CB80018F50020783E0020C83A0020C0050120D1
:105CC800680301205C4200200006012078030120BF
:105CD800C84200200806012094020120503A002002
:105CE800B0050120C8F50020C83E002020F900209A
:105CF80064F9002068F60020A8F90020AC4BC0F831
:105D0800088003601146C8E90222C8E90522C8E9EB
:105D18000722C8E90922C8E90B22C8E90D2288F838
:105D28001020C8F83C2088F86C2000F027FBA14A16
:105D3800A1493046FFF7DCFBA04FA14801237B6057
:105D48004360A04B3B6000229F4B87600360114675
:105D5800C7E90222C7E90522C7E90722C7E90922DC
:105D6800C7E90B22C7E90D223A74FA6387F86C2059
:105D780000F0B8FA924A95493046FFF7B9FB944AC1
:105D8800944B13600123944953603046FFF7B0FBEE
:105D9800924A934B13600123924953603046FFF7B0
:105DA800A7FB914C9149216000230122C4E90123FA
:105DB800C4E90333C4E90533C4E90733C4E9093343
:105DC800C4E90B33C4E90D33C4E90F33C4E9113313
:105DD800C4E91333C4E91533C4E91733C4E91933E3
:105DE800C4E91B33C4E91D33E3678148C4E92033A0
:105DF8002146C4E92233C4E92433C4E92633C4E97B
:105E08002833C4E92A33C4E92C33C4E92E33C4F84F
:105E1800C03084F8C4301CF02BFE754A75493046F2
:105E2800FFF766FB744A754B13600123744953608E
:105E38003046FFF75DFB734A734B136001237349C8
:105E480053603046FFF754FB7148012111F082F886
:105E58006F4A70493046FFF74BFB6F4A6F4B136030
:105E680001236F4953603046FFF742FB6D4A6E4B82
:105E7800136001236D4953603046FFF739FB6C4AC4
:105E88006C4B136001236C4953603046FFF730FBBD
:105E98006A4A6B4B136001236A4953603046FFF727
:105EA80027FB694A02A93046CDE9022ACDE9049BBD
:105EB800CDE9068701F064FDF36864480193FFF7B4
:105EC800F5FC019B604A43F82020F3686048019381
:105ED800FFF7ECFC019B43F820A05E48D6F80CA025
:105EE800FFF7E4FC4AF820905B48D6F80C90FFF7DF
:105EF800DDFC49F820505948F568FFF7D7FC45F80C
:105F080020B02D48F568FFF7D1FC45F820802F48D0
:105F1800F568FFF7CBFC45F820703648F568FFF7C1
:105F2800C5FC45F82040304609B0BDE8F08F04466E
:105F380001313AD1204626F039F90D460446204869
:105F4800FFF708FA2946F3E70D4604464448FFF7E9
:105F580001FA2946ECE70D4604464248FFF7FAF9EC
:105F68002946E5E70D4604463F48FFF7F3F9294679
:105F7800DEE70D4604463D48FFF7ECF92946D7E72A
:105F88000D4604463A48FFF7E5F92946D0E70D469D
:105F980004463848FFF7DEF92946C9E70D460446A6
:105FA8000448FFF7D7F92946C2E725F0E9FF00BF03
:105FB800CC390020C8F50020A405012018FA0020DB
:105FC800D4F50020D83E0020003A0020A805012082
:105FD8005CF500205C3B0020D00501206CF500201A
:105FE8008C3B0020D805012058F80020983E00205E
:105FF80088F50020D00401202CF50020183B002053
:10600800C80501203CF50020004400202C06012092
:10601800FCF40020B805012044F50020644100206C
:10602800E80501204CF500200C410020E005012086
:10603800E0F5002038410020E4050120E8F50020C3
:10604800E0400020DC05012000F60020BC0501200E
:106058009C050120A0050120CC040120C0050120D9
:10606800BCF50020B0F50020880201200CF50020C6
:106078009402012018F50020F8B5174E3368002265
:1060880004460260D3B1154D2A6822609A420AD0AC
:10609800134E3368BFF35B8FDB0706D52B6823608D
:1060A8001A6801321A602046F8BD3046FDF7DEFD59
:1060B8000028F3D03046FDF7DFFDEFE7094F074D25
:1060C80002213846FFF7FEFB0748376039462F6044
:1060D800FFF754F93368D7E78C05012098050120AC
:1060E80008F400209CF500209401012010B5044616
:1060F800806830B32E234374A3681E492C229A74F7
:106108001D4AA368106818630022C3E90212C3E994
:106118000512C3E90712C3E90912DA62174AA3682C
:106128001268586302F10A0C531EC2F10100A268FA
:10613800C1180A4413F8011F82F838106345F6D1D4
:1061480010BD4420FDF7F0F90D4AA0600023C0E916
:106158000023C0E90233C0E90533C0E90733C0E9C9
:106168000933C0E90B3303828374436380F84330F7
:10617800C0E700BFE8090020100D002034DA002035
:10618800B83E002010B50446806830B32E2343740F
:10619800A3681E492C229A741D4AA36810681863C4
:1061A8000022C3E90212C3E90512C3E90712C3E9D1
:1061B8000912DA62174AA3681268586302F10A0CD6
:1061C800531EC2F10100A268C1180A4413F8011F46
:1061D80082F838106345F6D110BD4420FDF7A4F9C4
:1061E8000D4AA0600023C0E90023C0E90233C0E9DA
:1061F8000533C0E90733C0E90933C0E90B3303822B
:106208008374436380F84330C0E700BFE809002087
:10621800100D002034DA0020A83E002010B50446F6
:106228008068084B236010B103685B689847204674
:10623800FFF790F8204610BD2046FFF78BF825F0B1
:106248009FFE00BF9839002010B5044680680B4BAC
:10625800236010B103685B6898472046FFF77AF817
:106268002046FDF765F9204610BD2046FFF772F875
:106278002046FDF75DF925F083FEF9E798390020FF
:1062880010B504468068084B236010B103685B684A
:1062980098472046FFF75EF8204610BD2046FFF7D6
:1062A80059F825F06DFE00BF6439002010B504468A
:1062B80080680B4B236010B103685B6898472046E1
:1062C800FFF748F82046FDF733F9204610BD204671
:1062D800FFF740F82046FDF72BF925F051FEF9E7C6
:1062E8006439002038B58368044613B31E491F4D2E
:1062F80008681F4998630022C3E90712C3E9091215
:10630800C3E90B129D60DA605A632E25A2685D61AD
:1063180018492C259D61D0630968A2684B1E3C3240
:1063280001F10A0013F8011F42F8041F8342F9D152
:1063380038BD7020FDF7F8F80F49A0600022C0E9C9
:106348000012C0E90222C0E90522C0E90722C0E91B
:106358000922C0E90B22C0E90D2203460274C26378
:1063680080F86C20C2E700BF100D0020E80900206B
:10637800EC52002034DA0020D83E002038B583687B
:10638800044613B31E491F4D08681F49986300222D
:10639800C3E90712C3E90912C3E90B129D60DA6069
:1063A8005A632E25A2685D6118492C259D61D0632A
:1063B8000968A2684B1E3C3201F10A0013F8011F5C
:1063C80042F8041F8342F9D138BD7020FDF7ACF8BC
:1063D8000F49A0600022C0E90012C0E90222C0E90A
:1063E8000522C0E90722C0E90922C0E90B22C0E959
:1063F8000D2203460274C26380F86C20C2E700BF16
:10640800100D0020E8090020EC52002034DA0020AA
:10641800C83E002010B504468068084B236010B1C0
:1064280003685B6898472046FEF794FF204610BD36
:106438002046FEF78FFF25F0A3FD00BF003A00209D
:1064480010B5044680680B4B236010B103685B6885
:1064580098472046FEF77EFF2046FDF769F820465C
:1064680010BD2046FEF776FF2046FDF761F825F0BF
:1064780087FDF9E7003A002010B504468068084B0C
:10648800236010B103685B6898472046FEF762FFF7
:10649800204610BD2046FEF75DFF25F071FD00BFC8
:1064A800CC39002010B5044680680B4B236010B12E
:1064B80003685B6898472046FEF74CFF2046FDF7C7
:1064C80037F8204610BD2046FEF744FF2046FDF76A
:1064D8002FF825F055FDF9E7CC39002090F8433026
:1064E8000C4A10B5044602607BB1806808B1FDF71C
:1064F80021F8606908B1FDF71DF8E06908B1FDF7FA
:1065080019F8606A08B1FDF715F82046FEF722FF72
:10651800204610BDB83E002010B50446FFF7DEFF48
:106528002046FDF705F8204610BD2046FDF700F887
:1065380025F026FD90F843300C4A10B50446026059
:106548007BB1806808B1FCF7F5FF606908B1FCF71A
:10655800F1FFE06908B1FCF7EDFF606A08B1FCF7EC
:10656800E9FF2046FEF7F6FE204610BDA83E0020B3
:1065780010B50446FFF7DEFF2046FCF7D9FF20469A
:1065880010BD2046FCF7D4FF25F0FAFC90F86C30DB
:106598000C4A10B5044602607BB1806808B1FCF76C
:1065A800C9FFE06908B1FCF7C5FF606A08B1FCF7EC
:1065B800C1FFE06A08B1FCF7BDFF2046FEF7CAFE3E
:1065C800204610BDD83E002010B50446FFF7DEFF78
:1065D8002046FCF7ADFF204610BD2046FCF7A8FF7B
:1065E80025F0CEFC90F86C300C4A10B504460260D9
:1065F8007BB1806808B1FCF79DFFE06908B1FCF742
:1066080099FF606A08B1FCF795FFE06A08B1FCF7EA
:1066180091FF2046FEF79EFE204610BDC83E002092
:1066280010B50446FFF7DEFF2046FCF781FF204641
:1066380010BD2046FCF77CFF25F0A2FC10B50446EF
:10664800806830B32E234374A3681E492C229A74A1
:106658001D4AA368106818630022C3E90212C3E93F
:106668000512C3E90712C3E90912DA62174AA368D7
:106678001268586302F10A0C531EC2F10100A268A5
:10668800C1180A4413F8011F82F838106345F6D17F
:1066980010BD4420FCF748FF0D4AA0600023C0E964
:1066A8000023C0E90233C0E90533C0E90733C0E974
:1066B8000933C0E90B3303828374436380F84330A2
:1066C800C0E700BFE8090020100D002034DA0020E0
:1066D800B83E002010B50446806830B32E234374BA
:1066E800A3681E492C229A741D4AA368106818636F
:1066F8000022C3E90212C3E90512C3E90712C3E97C
:106708000912DA62174AA3681268586302F10A0C80
:10671800531EC2F10100A268C1180A4413F8011FF0
:1067280082F838106345F6D110BD4420FCF7FCFE12
:106738000D4AA0600023C0E90023C0E90233C0E984
:106748000533C0E90733C0E90933C0E90B330382D5
:106758008374436380F84330C0E700BFE809002032
:10676800100D002034DA0020A83E002038B58568D6
:10677800114B0360044655B12B68104A5B6893427D
:10678800284609D1FFF7AAFE2846FCF7D1FE204685
:10679800FEF7E0FD204638BD98472046FEF7DAFDB3
:1067A800204638BD02E02846FCF7C2FE2046FEF728
:1067B800D1FD25F0E5FB00BF503C0020F948000062
:1067C80010B50446FFF7D2FF2046FCF7B1FE20467D
:1067D80010BD2046FCF7ACFE25F0D2FB38B5856825
:1067E800114B0360044655B12B68104A5B6893420D
:1067F800284609D1FFF79EFE2846FCF799FE204659
:10680800FEF7A8FD204638BD98472046FEF7A2FDB2
:10681800204638BD02E02846FCF78AFE2046FEF7EF
:1068280099FD25F0ADFB00BF1C3C0020514900003C
:1068380010B50446FFF7D2FF2046FCF779FE204644
:1068480010BD2046FCF774FE25F09AFB38B5836826
:10685800044613B31E491F4D08681F499863002258
:10686800C3E90712C3E90912C3E90B129D60DA6094
:106878005A632E25A2685D6118492C259D61D06355
:106888000968A2684B1E3C3201F10A0013F8011F87
:1068980042F8041F8342F9D138BD7020FCF744FE4A
:1068A8000F49A0600022C0E90012C0E90222C0E935
:1068B8000522C0E90722C0E90922C0E90B22C0E984
:1068C8000D2203460274C26380F86C20C2E700BF41
:1068D800100D0020E8090020EC52002034DA0020D6
:1068E800D83E002038B58368044613B31E491F4DAF
:1068F80008681F4998630022C3E90712C3E909120F
:10690800C3E90B129D60DA605A632E25A2685D61A7
:1069180018492C259D61D0630968A2684B1E3C323A
:1069280001F10A0013F8011F42F8041F8342F9D14C
:1069380038BD7020FCF7F8FD0F49A0600022C0E9BF
:106948000012C0E90222C0E90522C0E90722C0E915
:106958000922C0E90B22C0E90D2203460274C26372
:1069680080F86C20C2E700BF100D0020E809002065
:10697800EC52002034DA0020C83E002038B5856883
:10698800114B0360044655B12B68104A5B6893426B
:10699800284609D1FFF7FAFD2846FCF7C9FD20462D
:1069A800FEF7D8FC204638BD98472046FEF7D2FCB3
:1069B800204638BD02E02846FCF7BAFD2046FEF71F
:1069C800C9FC25F0DDFA00BFB83C0020A949000049
:1069D80010B50446FFF7D2FF2046FCF7A9FD204674
:1069E80010BD2046FCF7A4FD25F0CAFA38B5856825
:1069F800114B0360044655B12B68104A5B689342FB
:106A0800284609D1FFF7EEFD2846FCF791FD204600
:106A1800FEF7A0FC204638BD98472046FEF79AFCB2
:106A2800204638BD02E02846FCF782FD2046FEF7E6
:106A380091FC25F0A5FA00BF843C0020014A000023
:106A480010B50446FFF7D2FF2046FCF771FD20463B
:106A580010BD2046FCF76CFD25F092FA38B50446C7
:106A68008068002835D0244B244D2E2280F824201D
:106A7800A1681A680023C0E9025303742C2381F823
:106A8800253002F1230C531EC2F10100A268C1187F
:106A98000A4413F8011F82F826106345F6D1184BF3
:106AA8001868431E00F1190CC0F10100A268C11852
:106AB8000A4413F8011F82F84A106345F6D1A36807
:106AC8001049114C04200522C3E90540C3E9071207
:106AD80038BD6820FCF728FD0C4AA0600023C0E9F7
:106AE8000023C0E90233C0E90533C0E90733037462
:106AF800838480F86430B6E730DA0020E8090020A3
:106B08002CDA0020D0120020C8120020683E002095
:106B180010B504468068084B236010B103685B68B1
:106B280098472046FEF716FC204610BD2046FEF783
:106B380011FC25F025FA00BFA43A002010B5044640
:106B480080680B4B236010B103685B689847204648
:106B5800FEF700FC2046FCF7EBFC204610BD204663
:106B6800FEF7F8FB2046FCF7E3FC25F009FAF9E705
:106B7800A43A002038B584685CB3214B21481968D1
:106B8800A06000232246E36023742E202C23606239
:106B980001F1230C42F8283F4B1E13F8011F42F85D
:106BA800041F6345F9D1184B196804F1B8024B1E4C
:106BB80001F1190C13F8011F42F8041F6345F9D1BC
:106BC8001248134A04210523C4E90501C4E907232F
:106BD80038BD05464FF49470FCF7A6FC0D4AA86032
:106BE8000023C0E90023C0E90233C0E90533C0E946
:106BF8000733C0E909330446037480F82431BCE73D
:106C080030DA0020E80900202CDA0020D812002011
:106C1800EC120020783E002010B504468068084B2E
:106C2800236010B103685B6898472046FEF792FB23
:106C3800204610BD2046FEF78DFB25F0A1F900BFC8
